{
  "_format": "hh-sol-artifact-1",
  "contractName": "CloseSea",
  "sourceName": "contracts/CloseSea.sol",
  "abi": [
    {
      "inputs": [],
      "stateMutability": "nonpayable",
      "type": "constructor"
    },
    {
      "anonymous": false,
      "inputs": [
        {
          "indexed": true,
          "internalType": "address",
          "name": "owner",
          "type": "address"
        },
        {
          "indexed": true,
          "internalType": "address",
          "name": "approved",
          "type": "address"
        },
        {
          "indexed": true,
          "internalType": "uint256",
          "name": "tokenId",
          "type": "uint256"
        }
      ],
      "name": "Approval",
      "type": "event"
    },
    {
      "anonymous": false,
      "inputs": [
        {
          "indexed": true,
          "internalType": "address",
          "name": "owner",
          "type": "address"
        },
        {
          "indexed": true,
          "internalType": "address",
          "name": "operator",
          "type": "address"
        },
        {
          "indexed": false,
          "internalType": "bool",
          "name": "approved",
          "type": "bool"
        }
      ],
      "name": "ApprovalForAll",
      "type": "event"
    },
    {
      "anonymous": false,
      "inputs": [
        {
          "indexed": true,
          "internalType": "uint256",
          "name": "tokenId",
          "type": "uint256"
        },
        {
          "indexed": false,
          "internalType": "address",
          "name": "seller",
          "type": "address"
        },
        {
          "indexed": false,
          "internalType": "address",
          "name": "owner",
          "type": "address"
        },
        {
          "indexed": false,
          "internalType": "uint256",
          "name": "price",
          "type": "uint256"
        },
        {
          "indexed": false,
          "internalType": "bool",
          "name": "sold",
          "type": "bool"
        }
      ],
      "name": "MarketItemCreated",
      "type": "event"
    },
    {
      "anonymous": false,
      "inputs": [
        {
          "indexed": true,
          "internalType": "address",
          "name": "from",
          "type": "address"
        },
        {
          "indexed": true,
          "internalType": "address",
          "name": "to",
          "type": "address"
        },
        {
          "indexed": true,
          "internalType": "uint256",
          "name": "tokenId",
          "type": "uint256"
        }
      ],
      "name": "Transfer",
      "type": "event"
    },
    {
      "inputs": [
        {
          "internalType": "address",
          "name": "to",
          "type": "address"
        },
        {
          "internalType": "uint256",
          "name": "tokenId",
          "type": "uint256"
        }
      ],
      "name": "approve",
      "outputs": [],
      "stateMutability": "nonpayable",
      "type": "function"
    },
    {
      "inputs": [
        {
          "internalType": "address",
          "name": "owner",
          "type": "address"
        }
      ],
      "name": "balanceOf",
      "outputs": [
        {
          "internalType": "uint256",
          "name": "",
          "type": "uint256"
        }
      ],
      "stateMutability": "view",
      "type": "function"
    },
    {
      "inputs": [
        {
          "internalType": "uint256",
          "name": "tokenId",
          "type": "uint256"
        }
      ],
      "name": "createMarketSale",
      "outputs": [],
      "stateMutability": "payable",
      "type": "function"
    },
    {
      "inputs": [
        {
          "internalType": "string",
          "name": "tokenURI",
          "type": "string"
        },
        {
          "internalType": "uint256",
          "name": "price",
          "type": "uint256"
        }
      ],
      "name": "createToken",
      "outputs": [
        {
          "internalType": "uint256",
          "name": "",
          "type": "uint256"
        }
      ],
      "stateMutability": "payable",
      "type": "function"
    },
    {
      "inputs": [],
      "name": "fetchItemsListed",
      "outputs": [
        {
          "components": [
            {
              "internalType": "uint256",
              "name": "tokenId",
              "type": "uint256"
            },
            {
              "internalType": "address payable",
              "name": "seller",
              "type": "address"
            },
            {
              "internalType": "address payable",
              "name": "owner",
              "type": "address"
            },
            {
              "internalType": "uint256",
              "name": "price",
              "type": "uint256"
            },
            {
              "internalType": "bool",
              "name": "sold",
              "type": "bool"
            }
          ],
          "internalType": "struct CloseSea.MarketItem[]",
          "name": "",
          "type": "tuple[]"
        }
      ],
      "stateMutability": "view",
      "type": "function"
    },
    {
      "inputs": [],
      "name": "fetchMarketItems",
      "outputs": [
        {
          "components": [
            {
              "internalType": "uint256",
              "name": "tokenId",
              "type": "uint256"
            },
            {
              "internalType": "address payable",
              "name": "seller",
              "type": "address"
            },
            {
              "internalType": "address payable",
              "name": "owner",
              "type": "address"
            },
            {
              "internalType": "uint256",
              "name": "price",
              "type": "uint256"
            },
            {
              "internalType": "bool",
              "name": "sold",
              "type": "bool"
            }
          ],
          "internalType": "struct CloseSea.MarketItem[]",
          "name": "",
          "type": "tuple[]"
        }
      ],
      "stateMutability": "view",
      "type": "function"
    },
    {
      "inputs": [],
      "name": "fetchMyNFTs",
      "outputs": [
        {
          "components": [
            {
              "internalType": "uint256",
              "name": "tokenId",
              "type": "uint256"
            },
            {
              "internalType": "address payable",
              "name": "seller",
              "type": "address"
            },
            {
              "internalType": "address payable",
              "name": "owner",
              "type": "address"
            },
            {
              "internalType": "uint256",
              "name": "price",
              "type": "uint256"
            },
            {
              "internalType": "bool",
              "name": "sold",
              "type": "bool"
            }
          ],
          "internalType": "struct CloseSea.MarketItem[]",
          "name": "",
          "type": "tuple[]"
        }
      ],
      "stateMutability": "view",
      "type": "function"
    },
    {
      "inputs": [
        {
          "internalType": "uint256",
          "name": "tokenId",
          "type": "uint256"
        }
      ],
      "name": "getApproved",
      "outputs": [
        {
          "internalType": "address",
          "name": "",
          "type": "address"
        }
      ],
      "stateMutability": "view",
      "type": "function"
    },
    {
      "inputs": [],
      "name": "getListingPrice",
      "outputs": [
        {
          "internalType": "uint256",
          "name": "",
          "type": "uint256"
        }
      ],
      "stateMutability": "view",
      "type": "function"
    },
    {
      "inputs": [
        {
          "internalType": "address",
          "name": "owner",
          "type": "address"
        },
        {
          "internalType": "address",
          "name": "operator",
          "type": "address"
        }
      ],
      "name": "isApprovedForAll",
      "outputs": [
        {
          "internalType": "bool",
          "name": "",
          "type": "bool"
        }
      ],
      "stateMutability": "view",
      "type": "function"
    },
    {
      "inputs": [],
      "name": "name",
      "outputs": [
        {
          "internalType": "string",
          "name": "",
          "type": "string"
        }
      ],
      "stateMutability": "view",
      "type": "function"
    },
    {
      "inputs": [
        {
          "internalType": "uint256",
          "name": "tokenId",
          "type": "uint256"
        }
      ],
      "name": "ownerOf",
      "outputs": [
        {
          "internalType": "address",
          "name": "",
          "type": "address"
        }
      ],
      "stateMutability": "view",
      "type": "function"
    },
    {
      "inputs": [
        {
          "internalType": "uint256",
          "name": "tokenId",
          "type": "uint256"
        },
        {
          "internalType": "uint256",
          "name": "price",
          "type": "uint256"
        }
      ],
      "name": "resellToken",
      "outputs": [],
      "stateMutability": "payable",
      "type": "function"
    },
    {
      "inputs": [
        {
          "internalType": "address",
          "name": "from",
          "type": "address"
        },
        {
          "internalType": "address",
          "name": "to",
          "type": "address"
        },
        {
          "internalType": "uint256",
          "name": "tokenId",
          "type": "uint256"
        }
      ],
      "name": "safeTransferFrom",
      "outputs": [],
      "stateMutability": "nonpayable",
      "type": "function"
    },
    {
      "inputs": [
        {
          "internalType": "address",
          "name": "from",
          "type": "address"
        },
        {
          "internalType": "address",
          "name": "to",
          "type": "address"
        },
        {
          "internalType": "uint256",
          "name": "tokenId",
          "type": "uint256"
        },
        {
          "internalType": "bytes",
          "name": "_data",
          "type": "bytes"
        }
      ],
      "name": "safeTransferFrom",
      "outputs": [],
      "stateMutability": "nonpayable",
      "type": "function"
    },
    {
      "inputs": [
        {
          "internalType": "address",
          "name": "operator",
          "type": "address"
        },
        {
          "internalType": "bool",
          "name": "approved",
          "type": "bool"
        }
      ],
      "name": "setApprovalForAll",
      "outputs": [],
      "stateMutability": "nonpayable",
      "type": "function"
    },
    {
      "inputs": [
        {
          "internalType": "bytes4",
          "name": "interfaceId",
          "type": "bytes4"
        }
      ],
      "name": "supportsInterface",
      "outputs": [
        {
          "internalType": "bool",
          "name": "",
          "type": "bool"
        }
      ],
      "stateMutability": "view",
      "type": "function"
    },
    {
      "inputs": [],
      "name": "symbol",
      "outputs": [
        {
          "internalType": "string",
          "name": "",
          "type": "string"
        }
      ],
      "stateMutability": "view",
      "type": "function"
    },
    {
      "inputs": [
        {
          "internalType": "uint256",
          "name": "tokenId",
          "type": "uint256"
        }
      ],
      "name": "tokenURI",
      "outputs": [
        {
          "internalType": "string",
          "name": "",
          "type": "string"
        }
      ],
      "stateMutability": "view",
      "type": "function"
    },
    {
      "inputs": [
        {
          "internalType": "address",
          "name": "from",
          "type": "address"
        },
        {
          "internalType": "address",
          "name": "to",
          "type": "address"
        },
        {
          "internalType": "uint256",
          "name": "tokenId",
          "type": "uint256"
        }
      ],
      "name": "transferFrom",
      "outputs": [],
      "stateMutability": "nonpayable",
      "type": "function"
    },
    {
      "inputs": [
        {
          "internalType": "uint256",
          "name": "_listingPrice",
          "type": "uint256"
        }
      ],
      "name": "updateListingPrice",
      "outputs": [],
      "stateMutability": "payable",
      "type": "function"
    },
    {
      "inputs": [],
      "name": "withdraw",
      "outputs": [],
      "stateMutability": "payable",
      "type": "function"
    }
  ],
  "bytecode": "0x60806040526658d15e176280006009553480156200001c57600080fd5b50604080518082018252601381527f436c6f736553656120436f6c6c656374696f6e0000000000000000000000000060208083019182528351808501909452600384526243534360e81b9084015281519192916200007d91600091620000ae565b50805162000093906001906020840190620000ae565b5050600a80546001600160a01b031916331790555062000191565b828054620000bc9062000154565b90600052602060002090601f016020900481019282620000e057600085556200012b565b82601f10620000fb57805160ff19168380011785556200012b565b828001600101855582156200012b579182015b828111156200012b5782518255916020019190600101906200010e565b50620001399291506200013d565b5090565b5b808211156200013957600081556001016200013e565b600181811c908216806200016957607f821691505b602082108114156200018b57634e487b7160e01b600052602260045260246000fd5b50919050565b61240680620001a16000396000f3fe6080604052600436106101355760003560e01c80636352211e116100ab578063ae677aa31161006f578063ae677aa314610326578063b88d4fde14610339578063be9af53614610359578063c87b56dd1461036c578063e219fc751461038c578063e985e9c51461039f57600080fd5b80636352211e1461029e57806370a08231146102be57806372b3b620146102de57806395d89b41146102f1578063a22cb4651461030657600080fd5b806312e85585116100fd57806312e855851461020d578063202e37401461022c57806323b872dd146102415780633ccfd60b1461026157806342842e0e1461026957806345f8fa801461028957600080fd5b806301ffc9a71461013a57806306fdde031461016f578063081812fc14610191578063095ea7b3146101c95780630f08efe0146101eb575b600080fd5b34801561014657600080fd5b5061015a610155366004611fc7565b6103e8565b60405190151581526020015b60405180910390f35b34801561017b57600080fd5b5061018461043a565b60405161016691906121a2565b34801561019d57600080fd5b506101b16101ac366004612055565b6104cc565b6040516001600160a01b039091168152602001610166565b3480156101d557600080fd5b506101e96101e4366004611f9e565b610559565b005b3480156101f757600080fd5b5061020061066f565b6040516101669190612126565b34801561021957600080fd5b506009545b604051908152602001610166565b34801561023857600080fd5b50610200610823565b34801561024d57600080fd5b506101e961025c366004611eb0565b610a15565b6101e9610a46565b34801561027557600080fd5b506101e9610284366004611eb0565b610ad3565b34801561029557600080fd5b50610200610aee565b3480156102aa57600080fd5b506101b16102b9366004612055565b610ce0565b3480156102ca57600080fd5b5061021e6102d9366004611e64565b610d57565b61021e6102ec366004611fff565b610dde565b3480156102fd57600080fd5b50610184610e20565b34801561031257600080fd5b506101e9610321366004611f64565b610e2f565b6101e9610334366004612055565b610e3a565b34801561034557600080fd5b506101e9610354366004611eeb565b610eb2565b6101e9610367366004612055565b610eea565b34801561037857600080fd5b50610184610387366004612055565b61104f565b6101e961039a36600461206d565b6111c6565b3480156103ab57600080fd5b5061015a6103ba366004611e7e565b6001600160a01b03918216600090815260056020908152604080832093909416825291909152205460ff1690565b60006001600160e01b031982166380ac58cd60e01b148061041957506001600160e01b03198216635b5e139f60e01b145b8061043457506301ffc9a760e01b6001600160e01b03198316145b92915050565b6060600080546104499061230b565b80601f01602080910402602001604051908101604052809291908181526020018280546104759061230b565b80156104c25780601f10610497576101008083540402835291602001916104c2565b820191906000526020600020905b8154815290600101906020018083116104a557829003601f168201915b5050505050905090565b60006104d7826112be565b61053d5760405162461bcd60e51b815260206004820152602c60248201527f4552433732313a20617070726f76656420717565727920666f72206e6f6e657860448201526b34b9ba32b73a103a37b5b2b760a11b60648201526084015b60405180910390fd5b506000908152600460205260409020546001600160a01b031690565b600061056482610ce0565b9050806001600160a01b0316836001600160a01b031614156105d25760405162461bcd60e51b815260206004820152602160248201527f4552433732313a20617070726f76616c20746f2063757272656e74206f776e656044820152603960f91b6064820152608401610534565b336001600160a01b03821614806105ee57506105ee81336103ba565b6106605760405162461bcd60e51b815260206004820152603860248201527f4552433732313a20617070726f76652063616c6c6572206973206e6f74206f7760448201527f6e6572206e6f7220617070726f76656420666f7220616c6c00000000000000006064820152608401610534565b61066a83836112db565b505050565b6060600061067c60075490565b9050600061068960085490565b60075461069691906122c8565b90506000808267ffffffffffffffff8111156106c257634e487b7160e01b600052604160045260246000fd5b60405190808252806020026020018201604052801561071b57816020015b6040805160a0810182526000808252602080830182905292820181905260608201819052608082015282526000199092019101816106e05790505b50905060005b8481101561081a5730600b600061073984600161229c565b81526020810191909152604001600020600201546001600160a01b0316141561080857600061076982600161229c565b6000818152600b6020908152604091829020825160a0810184528154815260018201546001600160a01b039081169382019390935260028201549092169282019290925260038201546060820152600482015460ff1615156080820152855192935090918590879081106107ed57634e487b7160e01b600052603260045260246000fd5b602090810291909101015261080360018661229c565b945050505b8061081281612346565b915050610721565b50949350505050565b6060600061083060075490565b905060008060005b838110156108935733600b600061085084600161229c565b81526020810191909152604001600020600201546001600160a01b031614156108815761087e60018461229c565b92505b8061088b81612346565b915050610838565b5060008267ffffffffffffffff8111156108bd57634e487b7160e01b600052604160045260246000fd5b60405190808252806020026020018201604052801561091657816020015b6040805160a0810182526000808252602080830182905292820181905260608201819052608082015282526000199092019101816108db5790505b50905060005b8481101561081a5733600b600061093484600161229c565b81526020810191909152604001600020600201546001600160a01b03161415610a0357600061096482600161229c565b6000818152600b6020908152604091829020825160a0810184528154815260018201546001600160a01b039081169382019390935260028201549092169282019290925260038201546060820152600482015460ff1615156080820152855192935090918590879081106109e857634e487b7160e01b600052603260045260246000fd5b60209081029190910101526109fe60018661229c565b945050505b80610a0d81612346565b91505061091c565b610a1f3382611349565b610a3b5760405162461bcd60e51b81526004016105349061224b565b61066a838383611432565b600a546001600160a01b03163314610aa05760405162461bcd60e51b815260206004820152601860248201527f4f6e6c79206f776e65722063616e2077697468647261772e00000000000000006044820152606401610534565b6040514790339082156108fc029083906000818181858888f19350505050158015610acf573d6000803e3d6000fd5b5050565b61066a83838360405180602001604052806000815250610eb2565b60606000610afb60075490565b905060008060005b83811015610b5e5733600b6000610b1b84600161229c565b81526020810191909152604001600020600101546001600160a01b03161415610b4c57610b4960018461229c565b92505b80610b5681612346565b915050610b03565b5060008267ffffffffffffffff811115610b8857634e487b7160e01b600052604160045260246000fd5b604051908082528060200260200182016040528015610be157816020015b6040805160a081018252600080825260208083018290529282018190526060820181905260808201528252600019909201910181610ba65790505b50905060005b8481101561081a5733600b6000610bff84600161229c565b81526020810191909152604001600020600101546001600160a01b03161415610cce576000610c2f82600161229c565b6000818152600b6020908152604091829020825160a0810184528154815260018201546001600160a01b039081169382019390935260028201549092169282019290925260038201546060820152600482015460ff161515608082015285519293509091859087908110610cb357634e487b7160e01b600052603260045260246000fd5b6020908102919091010152610cc960018661229c565b945050505b80610cd881612346565b915050610be7565b6000818152600260205260408120546001600160a01b0316806104345760405162461bcd60e51b815260206004820152602960248201527f4552433732313a206f776e657220717565727920666f72206e6f6e657869737460448201526832b73a103a37b5b2b760b91b6064820152608401610534565b60006001600160a01b038216610dc25760405162461bcd60e51b815260206004820152602a60248201527f4552433732313a2062616c616e636520717565727920666f7220746865207a65604482015269726f206164647265737360b01b6064820152608401610534565b506001600160a01b031660009081526003602052604090205490565b6000610dee600780546001019055565b6000610df960075490565b9050610e0533826115ce565b610e0f8185611701565b610e19818461178c565b9392505050565b6060600180546104499061230b565b610acf3383836118e2565b600a546001600160a01b03163314610ead5760405162461bcd60e51b815260206004820152603060248201527f4f6e6c79206d61726b6574706c616365206f776e65722063616e20757064617460448201526f32903634b9ba34b73390383934b1b29760811b6064820152608401610534565b600955565b610ebc3383611349565b610ed85760405162461bcd60e51b81526004016105349061224b565b610ee4848484846119b1565b50505050565b6000818152600b6020526040902060038101546001909101546001600160a01b0316348214610f83576040805162461bcd60e51b81526020600482015260248101919091527f506c65617365207375626d6974207468652061736b696e67207072696365206960448201527f6e206f7264657220746f20636f6d706c657465207468652070757263686173656064820152608401610534565b6000838152600b602052604090206002810180546001600160a01b0319908116331790915560048201805460ff1916600190811790915590910180549091169055610fd2600880546001019055565b610fdd303385611432565b600a546009546040516001600160a01b039092169181156108fc0291906000818181858888f19350505050158015611019573d6000803e3d6000fd5b506040516001600160a01b038216903480156108fc02916000818181858888f19350505050158015610ee4573d6000803e3d6000fd5b606061105a826112be565b6110c05760405162461bcd60e51b815260206004820152603160248201527f45524337323155524953746f726167653a2055524920717565727920666f72206044820152703737b732bc34b9ba32b73a103a37b5b2b760791b6064820152608401610534565b600082815260066020526040812080546110d99061230b565b80601f01602080910402602001604051908101604052809291908181526020018280546111059061230b565b80156111525780601f1061112757610100808354040283529160200191611152565b820191906000526020600020905b81548152906001019060200180831161113557829003601f168201915b50505050509050600061117060408051602081019091526000815290565b9050805160001415611183575092915050565b8151156111b557808260405160200161119d9291906120ba565b60405160208183030381529060405292505050919050565b6111be846119e4565b949350505050565b6000828152600b60205260409020600201546001600160a01b031633146112425760405162461bcd60e51b815260206004820152602a60248201527f4f6e6c79206974656d206f776e65722063616e20706572666f726d20746869736044820152691037b832b930ba34b7b760b11b6064820152608401610534565b60095434146112635760405162461bcd60e51b815260040161053490612207565b6000828152600b6020526040902060048101805460ff19169055600381018290556001810180546001600160a01b0319908116331790915560029091018054909116301790556112b36008611abb565b610acf333084611432565b6000908152600260205260409020546001600160a01b0316151590565b600081815260046020526040902080546001600160a01b0319166001600160a01b038416908117909155819061131082610ce0565b6001600160a01b03167f8c5be1e5ebec7d5bd14f71427d1e84f3dd0314c0f7b2291e5b200ac8c7c3b92560405160405180910390a45050565b6000611354826112be565b6113b55760405162461bcd60e51b815260206004820152602c60248201527f4552433732313a206f70657261746f7220717565727920666f72206e6f6e657860448201526b34b9ba32b73a103a37b5b2b760a11b6064820152608401610534565b60006113c083610ce0565b9050806001600160a01b0316846001600160a01b0316148061140757506001600160a01b0380821660009081526005602090815260408083209388168352929052205460ff165b806111be5750836001600160a01b0316611420846104cc565b6001600160a01b031614949350505050565b826001600160a01b031661144582610ce0565b6001600160a01b0316146114a95760405162461bcd60e51b815260206004820152602560248201527f4552433732313a207472616e736665722066726f6d20696e636f72726563742060448201526437bbb732b960d91b6064820152608401610534565b6001600160a01b03821661150b5760405162461bcd60e51b8152602060048201526024808201527f4552433732313a207472616e7366657220746f20746865207a65726f206164646044820152637265737360e01b6064820152608401610534565b6115166000826112db565b6001600160a01b038316600090815260036020526040812080546001929061153f9084906122c8565b90915550506001600160a01b038216600090815260036020526040812080546001929061156d90849061229c565b909155505060008181526002602052604080822080546001600160a01b0319166001600160a01b0386811691821790925591518493918716917fddf252ad1be2c89b69c2b068fc378daa952ba7f163c4a11628f55a4df523b3ef91a4505050565b6001600160a01b0382166116245760405162461bcd60e51b815260206004820181905260248201527f4552433732313a206d696e7420746f20746865207a65726f20616464726573736044820152606401610534565b61162d816112be565b1561167a5760405162461bcd60e51b815260206004820152601c60248201527f4552433732313a20746f6b656e20616c7265616479206d696e746564000000006044820152606401610534565b6001600160a01b03821660009081526003602052604081208054600192906116a390849061229c565b909155505060008181526002602052604080822080546001600160a01b0319166001600160a01b03861690811790915590518392907fddf252ad1be2c89b69c2b068fc378daa952ba7f163c4a11628f55a4df523b3ef908290a45050565b61170a826112be565b61176d5760405162461bcd60e51b815260206004820152602e60248201527f45524337323155524953746f726167653a2055524920736574206f66206e6f6e60448201526d32bc34b9ba32b73a103a37b5b2b760911b6064820152608401610534565b6000828152600660209081526040909120825161066a92840190611d39565b600081116117dc5760405162461bcd60e51b815260206004820152601c60248201527f5072696365206d757374206265206174206c65617374203120776569000000006044820152606401610534565b60095434146117fd5760405162461bcd60e51b815260040161053490612207565b6040805160a08101825283815233602080830182815230848601818152606086018881526000608088018181528b8252600b909652979097209551865591516001860180546001600160a01b03199081166001600160a01b0393841617909155925160028701805490941691161790915593516003840155516004909201805460ff1916921515929092179091556118959184611432565b604080513381523060208201529081018290526000606082015282907fb640004f1d14576d0c209e240cad0410e0d8c0c33a09375861fbadae2588a98d9060800160405180910390a25050565b816001600160a01b0316836001600160a01b031614156119445760405162461bcd60e51b815260206004820152601960248201527f4552433732313a20617070726f766520746f2063616c6c6572000000000000006044820152606401610534565b6001600160a01b03838116600081815260056020908152604080832094871680845294825291829020805460ff191686151590811790915591519182527f17307eab39ab6107e8899845ad3d59bd9653f200f220920489ca2b5937696c31910160405180910390a3505050565b6119bc848484611432565b6119c884848484611b12565b610ee45760405162461bcd60e51b8152600401610534906121b5565b60606119ef826112be565b611a535760405162461bcd60e51b815260206004820152602f60248201527f4552433732314d657461646174613a2055524920717565727920666f72206e6f60448201526e3732bc34b9ba32b73a103a37b5b2b760891b6064820152608401610534565b6000611a6a60408051602081019091526000815290565b90506000815111611a8a5760405180602001604052806000815250610e19565b80611a9484611c1f565b604051602001611aa59291906120ba565b6040516020818303038152906040529392505050565b805480611b0a5760405162461bcd60e51b815260206004820152601b60248201527f436f756e7465723a2064656372656d656e74206f766572666c6f7700000000006044820152606401610534565b600019019055565b60006001600160a01b0384163b15611c1457604051630a85bd0160e11b81526001600160a01b0385169063150b7a0290611b569033908990889088906004016120e9565b602060405180830381600087803b158015611b7057600080fd5b505af1925050508015611ba0575060408051601f3d908101601f19168201909252611b9d91810190611fe3565b60015b611bfa573d808015611bce576040519150601f19603f3d011682016040523d82523d6000602084013e611bd3565b606091505b508051611bf25760405162461bcd60e51b8152600401610534906121b5565b805181602001fd5b6001600160e01b031916630a85bd0160e11b1490506111be565b506001949350505050565b606081611c435750506040805180820190915260018152600360fc1b602082015290565b8160005b8115611c6d5780611c5781612346565b9150611c669050600a836122b4565b9150611c47565b60008167ffffffffffffffff811115611c9657634e487b7160e01b600052604160045260246000fd5b6040519080825280601f01601f191660200182016040528015611cc0576020820181803683370190505b5090505b84156111be57611cd56001836122c8565b9150611ce2600a86612361565b611ced90603061229c565b60f81b818381518110611d1057634e487b7160e01b600052603260045260246000fd5b60200101906001600160f81b031916908160001a905350611d32600a866122b4565b9450611cc4565b828054611d459061230b565b90600052602060002090601f016020900481019282611d675760008555611dad565b82601f10611d8057805160ff1916838001178555611dad565b82800160010185558215611dad579182015b82811115611dad578251825591602001919060010190611d92565b50611db9929150611dbd565b5090565b5b80821115611db95760008155600101611dbe565b600067ffffffffffffffff80841115611ded57611ded6123a1565b604051601f8501601f19908116603f01168101908282118183101715611e1557611e156123a1565b81604052809350858152868686011115611e2e57600080fd5b858560208301376000602087830101525050509392505050565b80356001600160a01b0381168114611e5f57600080fd5b919050565b600060208284031215611e75578081fd5b610e1982611e48565b60008060408385031215611e90578081fd5b611e9983611e48565b9150611ea760208401611e48565b90509250929050565b600080600060608486031215611ec4578081fd5b611ecd84611e48565b9250611edb60208501611e48565b9150604084013590509250925092565b60008060008060808587031215611f00578081fd5b611f0985611e48565b9350611f1760208601611e48565b925060408501359150606085013567ffffffffffffffff811115611f39578182fd5b8501601f81018713611f49578182fd5b611f5887823560208401611dd2565b91505092959194509250565b60008060408385031215611f76578182fd5b611f7f83611e48565b915060208301358015158114611f93578182fd5b809150509250929050565b60008060408385031215611fb0578182fd5b611fb983611e48565b946020939093013593505050565b600060208284031215611fd8578081fd5b8135610e19816123b7565b600060208284031215611ff4578081fd5b8151610e19816123b7565b60008060408385031215612011578182fd5b823567ffffffffffffffff811115612027578283fd5b8301601f81018513612037578283fd5b61204685823560208401611dd2565b95602094909401359450505050565b600060208284031215612066578081fd5b5035919050565b6000806040838503121561207f578182fd5b50508035926020909101359150565b600081518084526120a68160208601602086016122df565b601f01601f19169290920160200192915050565b600083516120cc8184602088016122df565b8351908301906120e08183602088016122df565b01949350505050565b6001600160a01b038581168252841660208201526040810183905260806060820181905260009061211c9083018461208e565b9695505050505050565b602080825282518282018190526000919060409081850190868401855b8281101561219557815180518552868101516001600160a01b03908116888701528682015116868601526060808201519086015260809081015115159085015260a09093019290850190600101612143565b5091979650505050505050565b602081526000610e19602083018461208e565b60208082526032908201527f4552433732313a207472616e7366657220746f206e6f6e20455243373231526560408201527131b2b4bb32b91034b6b83632b6b2b73a32b960711b606082015260800190565b60208082526024908201527f5072696365206d75737420626520657175616c20746f206c697374696e6720706040820152637269636560e01b606082015260800190565b60208082526031908201527f4552433732313a207472616e736665722063616c6c6572206973206e6f74206f6040820152701ddb995c881b9bdc88185c1c1c9bdd9959607a1b606082015260800190565b600082198211156122af576122af612375565b500190565b6000826122c3576122c361238b565b500490565b6000828210156122da576122da612375565b500390565b60005b838110156122fa5781810151838201526020016122e2565b83811115610ee45750506000910152565b600181811c9082168061231f57607f821691505b6020821081141561234057634e487b7160e01b600052602260045260246000fd5b50919050565b600060001982141561235a5761235a612375565b5060010190565b6000826123705761237061238b565b500690565b634e487b7160e01b600052601160045260246000fd5b634e487b7160e01b600052601260045260246000fd5b634e487b7160e01b600052604160045260246000fd5b6001600160e01b0319811681146123cd57600080fd5b5056fea2646970667358221220aed7e92744256fb4c789a5db63e4fa9dd3f87859b5c0b62d7b65ad7e31c4c38064736f6c63430008040033",
  "linkReferences": {},
  "deployedLinkReferences": {}
}